:100000000C9462000C948A000C948A000C948A0070
:100010000C948A000C948A000C948A000C948A0038
:100020000C948A000C948A000C948A000C948A0028
:100030000C948A000C948A000C948A000C948A0018
:100040000C94F1090C948A000C94560B0C949D0BA3
:100050000C948A000C948A000C948A000C948A00F8
:100060000C948A000C948A000000000024002700F1
:100070002A0000000000250028002B0000000000DE
:1000800023002600290004040404040404040202DA
:100090000202020203030303030301020408102007
:1000A0004080010204081020010204081020000012
:1000B0000007000201000003040600000000000029
:1000C0000000140D11241FBECFEFD8E0DEBFCDBF5E
:1000D00012E0A0E0B1E0E4E8F0E202C005900D9289
:1000E000A438B107D9F714E0A4E8B2E001C01D922A
:1000F000AE31B107E1F710E0C4ECD0E004C02297C4
:10010000FE010E940510C23CD107C9F70E94640D90
:100110000C9440100C940000CF93DF93BC0182300C
:10012000910510F462E070E0A0911C04B0911D04F0
:10013000ED01E0E0F0E040E050E021C088819981ED
:100140008617970769F48A819B81309719F093830A
:10015000828304C090931D0480931C04FE0134C06C
:100160006817790738F44115510519F08417950778
:1001700008F4AC01FE018A819B819C01E901209772
:10018000E9F641155105A9F1CA01861B970B0497A1
:1001900008F4BA01E0E0F0E02AC08D919C9111973B
:1001A00084179507F9F46417750781F412968D91F9
:1001B0009C911397309719F09383828304C0909396
:1001C0001D0480931C04FD0132964CC0CA01861B9D
:1001D000970BFD01E80FF91F6193719302978D93BF
:1001E0009C9340C0FD01828193819C01D9011097AD
:1001F000A1F680911A0490911B04892B41F48091FF
:100200004B0290914C0290931B0480931A044091EE
:100210004D0250914E024115510541F44DB75EB764
:100220008091490290914A02481B590B20911A046F
:1002300030911B04CA01821B930B8617970780F02D
:10024000AB014E5F5F4F8417950750F0420F531F6D
:1002500050931B0440931A04F9016193719302C0F7
:10026000E0E0F0E0CF01DF91CF910895CF93DF93ED
:10027000009709F450C0EC0122971B821A82A091CA
:100280001C04B0911D04109709F140E050E0AC1738
:10029000BD0708F1BB83AA83FE0121913191E20FD2
:1002A000F31FAE17BF0779F48D919C911197280F1A
:1002B000391F2E5F3F4F3983288312968D919C9171
:1002C00013979B838A834115510571F4D0931D04C4
:1002D000C0931C0420C012968D919C911397AD0180
:1002E000009711F0DC01D3CFFA01D383C2832191AF
:1002F0003191E20FF31FCE17DF0769F488819981EE
:10030000280F391F2E5F3F4FFA01318320838A81E6
:100310009B8193838283DF91CF910895A0E0B0E029
:10032000E4E9F1E00C940B106C01009729F4CB0187
:100330000E948C006C01C1C08EEF882E8FEF982E2A
:100340008C0C9D1C8601060F171F0815190508F453
:10035000B2C0F401A081B181A617B707B8F0A530EB
:10036000B10508F4AAC0CD0104978617970708F4D1
:10037000A4C01297A61BB70BF801A193B193D401A7
:100380006D937C93CF010E94360197C07B01EA1ADE
:10039000FB0AEEEFFFEFEE0EFF1E36016A0E7B1E2C
:1003A000C0911C04D0911D0444245524AA24BB24CC
:1003B0004AC0C615D705E1F5488159814E155F053C
:1003C000B8F1CA0104978E159F05B0F41296A40FD8
:1003D000B51FF401B183A0832A813B8141145104EC
:1003E00031F0D20113963C932E93129766C030934E
:1003F0001D0420931C0461C08A819B81F8019383B2
:100400008283425050404E195F095183408341140A
:10041000510431F0D20113961C930E93129704C02D
:1004200010931D0400931C04F4017183608345C084
:1004300088819981A816B90608F45C012E018A8189
:100440009B819C01E901209709F0B3CF80911A04A8
:1004500090911B0486159705E9F4A616B706D0F40B
:1004600020914D0230914E022115310541F42DB7F6
:100470003EB78091490290914A02281B390B02171E
:100480001307C8F410931B0400931A04D4016D934E
:100490007C9313C0CB010E948C00EC01009759F0B3
:1004A000F40140815181B6010E946302C6010E949D
:1004B00036016E0102C0CC24DD24C601CDB7DEB703
:1004C000E0E10C942710FB01DC0102C001900D92C9
:1004D00041505040D8F70895FB01DC0101900D9286
:1004E0000020E1F70895FB01DC014150504048F045
:1004F00001900D920020C9F701C01D92415050405B
:10050000E0F70895FB0151915523A9F0BF01DC01EB
:100510004D9145174111E1F759F4CD0101900020AB
:1005200049F04D9140154111C9F3FB014111EFCF45
:1005300081E090E001970895AEE0B0E0E2EAF2E0F9
:100540000C9417100D891E898F89988D97FF02C012
:1005500080E090E801979E838D831A83098386E06B
:100560008C839E01255E3F4FCE010196698D7A8D69
:10057000A9010E94F1024D815E8157FD0AC02F81C1
:100580003885421753070CF49A01020F131FF80124
:1005900010822E96E4E00C943310AEE0B0E0E3ED70
:1005A000F2E00C9417100D891E8986E08C831A8363
:1005B00009838FEF9FE79E838D839E01275E3F4FC8
:1005C000CE0101966F89788DA9010E94F1022F81D9
:1005D0003885020F131FF80110822E96E4E00C9468
:1005E0003310ABE0B0E0E7EFF2E00C9409103C010F
:1005F0002B015A01FC0117821682838181FD03C001
:100600006FEF7FEFC6C19AE0892E1E010894211C6E
:10061000311CF3012381F20123FD859123FF819198
:100620002F01882309F4B2C1853239F423FD859165
:1006300023FF81912F01853229F490E0B3010E94BC
:10064000E404E7CF982FFF24EE249924FFE1FF155F
:10065000D0F09B3269F09C3228F4903259F09332FA
:1006600091F40EC09D3249F0903369F441E024C00A
:1006700052E0F52A84E0F82A28C098E0F92A25C03B
:10068000E0E1FE2A22C0F7FC29C0892F80538A307E
:1006900070F4F6FE05C0989C902C1124980E15C09D
:1006A000E89CE02C1124E80EF0E2FF2A0EC09E32F6
:1006B00029F4F6FC6BC140E4F42A07C09C3619F417
:1006C00050E8F52A02C0983649F4F20123FD9591CD
:1006D00023FF91912F01992309F0B8CF892F8554D9
:1006E000833018F08052833038F444E050E0A40E98
:1006F000B51E5FE359830FC0933631F0933779F01D
:10070000933509F056C020C0F5018081898342E00D
:1007100050E0A40EB51E610101E010E012C0F50129
:10072000C080D180F6FC03C06FEF7FEF02C0692D5F
:1007300070E042E050E0A40EB51EC6010E94D9044C
:100740008C015FE7F52214C0F501C080D180F6FC72
:1007500003C06FEF7FEF02C0692D70E042E050E010
:10076000A40EB51EC6010E94CE048C0150E8F52AE5
:10077000F3FE07C01AC080E290E0B3010E94E404D7
:10078000EA948E2D90E008171907A8F30EC0F60121
:10079000F7FC8591F7FE81916F0190E0B3010E9413
:1007A000E404E110EA94015010400115110579F7B5
:1007B000EAC0943611F0993669F5F7FE08C0F501E4
:1007C000208131814281538184E090E00AC0F501AB
:1007D000808191819C01442737FD4095542F82E010
:1007E00090E0A80EB91E9FE6F92257FF09C0509568
:1007F0004095309521953F4F4F4F5F4FE0E8FE2ADF
:10080000CA01B901A1012AE030E00E941005D82EEA
:10081000D21840C0953729F41F2D1F7E2AE030E002
:100820001DC01F2D197F9F3661F0903720F4983539
:1008300009F0ACC00FC0903739F0983709F0A6C066
:1008400004C028E030E00AC0106114FD146020E10B
:1008500030E004C014FD166020E132E017FF08C04C
:10086000F501608171818281938144E050E008C08C
:10087000F50180819181BC0180E090E042E050E090
:10088000A40EB51EA1010E941005D82ED2188FE724
:10089000F82EF122F6FE0BC05EEFF522D91438F4E3
:1008A000F4FE07C0F2FC05C08FEEF82202C01D2D39
:1008B00001C0192DF4FE0DC0FE01ED0DF11D80816A
:1008C000803319F499EEF92208C01F5FF2FE05C0CB
:1008D00003C08F2D867809F01F5F0F2DF3FC14C025
:1008E000F0FE0FC01E1510F09D2C0BC09D2C9E0C11
:1008F000911A1E2D06C080E290E0B3010E94E4042C
:100900001F5F1E15C0F304C01E1510F4E11A01C0CC
:10091000EE2404FF0FC080E390E0B3010E94E404E2
:1009200002FF1DC001FD03C088E790E00EC088E50E
:1009300090E00BC0802F867891F001FF02C08BE21F
:1009400001C080E2F7FC8DE290E0B3010E94E40474
:1009500006C080E390E0B3010E94E4049A94D914A5
:10096000C0F3DA94F101ED0DF11D808190E0B30147
:100970000E94E404DD20A9F706C080E290E0B30104
:100980000E94E404EA94EE20C1F743CEF3016681AD
:100990007781CB012B96E2E10C942510FC010590A8
:1009A000615070400110D8F7809590958E0F9F1F71
:1009B0000895FC016150704001900110D8F78095B6
:1009C00090958E0F9F1F08950F931F93CF93DF93E2
:1009D0008C01EB018B8181FF1BC082FF0DC02E813A
:1009E0003F818C819D812817390764F4E881F98162
:1009F0000193F983E88306C0E885F985802F09957E
:100A0000892B31F48E819F8101969F838E8302C052
:100A10000FEF1FEFC801DF91CF911F910F91089544
:100A2000FA01AA27283051F1203181F1E8946F931F
:100A30006E7F6E5F7F4F8F4F9F4FAF4FB1E03ED0C5
:100A4000B4E03CD0670F781F891F9A1FA11D680F63
:100A5000791F8A1F911DA11D6A0F711D811D911D96
:100A6000A11D20D009F468943F912AE0269F11240B
:100A70003019305D3193DEF6CF010895462F47706F
:100A8000405D4193B3E00FD0C9F7F6CF462F4F70CA
:100A9000405D4A3318F0495D31FD4052419302D028
:100AA000A9F7EACFB4E0A6959795879577956795CE
:100AB000BA95C9F700976105710508959B01AC01CE
:100AC0000A2E06945795479537952795BA95C9F7F5
:100AD000620F731F841F951FA01D08958BEF93E075
:100AE0000E946C0C08952F923F924F925F926F92EA
:100AF0007F928F929F92AF92BF92CF92DF92EF92AE
:100B0000FF920F931F93DF93CF93CDB7DEB7289754
:100B10000FB6F894DEBF0FBECDBF9E838D831B0141
:100B20007A0169010E94390A69837A838B839C83E5
:100B300000E010E0C801B70128EE33E040E050E0EB
:100B40000E949B0F2B013C0118861F828824992448
:100B50005401EE24FF2417C08BEF93E00E949D0CFC
:100B6000182F0E94390A4B015C01ED81FE812F8113
:100B70003885E20FF31F10832F5F3F4F38872F8395
:100B80002215330544F50E946E05892B29F74F8104
:100B9000588542155305FCF40E94390A29813A818F
:100BA0004B815C81621B730B840B950B46165706B9
:100BB0006806790680F00E94390A681979098A095D
:100BC0009B09C616D706E806F906E8F681149104D3
:100BD000A104B104C1F228960FB6F894DEBF0FBE8F
:100BE000CDBFCF91DF911F910F91FF90EF90DF90DC
:100BF000CF90BF90AF909F908F907F906F905F90BD
:100C00004F903F902F9008952F923F924F925F9276
:100C10007F928F929F92AF92BF92CF92DF92EF928C
:100C2000FF920F931F93DF93CF93CDB7DEB7C456D8
:100C3000D0400FB6F894DEBF0FBECDBF8C011B01B4
:100C40002A017901FE01319684E6DF011D928A9521
:100C5000E9F764E670E080E090E00E94470A04C093
:100C60008BEF93E00E949D0C8BEF93E00E946C0C45
:100C700018161906ACF38BEF93E0B8010E94D10D62
:100C80000E94390A4B015C0177246E010894C11C53
:100C9000D11C00E010E08BEF93E00E946C0C892BDC
:100CA000B9F08BEF93E00E949D0CF601E70DF11D6A
:100CB0008083C601B1010E948202009711F081E099
:100CC00015C0C601B2010E948202009771F47394AC
:100CD0000E94390A681979098A099B096E157F05EE
:100CE00080079107C0F280E001C082E0CC59DF4F5D
:100CF0000FB6F894DEBF0FBECDBFCF91DF911F912D
:100D00000F91FF90EF90DF90CF90BF90AF909F90AA
:100D10008F907F905F904F903F902F9008954F92CB
:100D20005F926F927F929F92AF92BF92CF92DF922B
:100D3000EF92FF920F931F93DF93CF93CDB7DEB760
:100D4000C456D0400FB6F894DEBF0FBECDBF8C01A5
:100D50002B017A01FE01319684E6DF011D928A950E
:100D6000E9F764E670E080E090E00E94470A04C082
:100D70008BEF93E00E949D0C8BEF93E00E946C0C34
:100D800018161906ACF38BEF93E0B8010E94D10D51
:100D90000E94390A5B016C0199243E010894611C90
:100DA000711C00E010E08BEF93E00E946C0C892B2B
:100DB00089F08BEF93E00E949D0CF301E90DF11D8A
:100DC0008083C301B2010E948202009711F081E08A
:100DD0000DC093940E94390A6A197B098C099D09F8
:100DE0006E157F0580079107F0F280E0CC59DF4F48
:100DF0000FB6F894DEBF0FBECDBFCF91DF911F912C
:100E00000F91FF90EF90DF90CF90BF90AF909F90A9
:100E10007F906F905F904F90089580E091E063E045
:100E200071E040ED57E00E948F068823D1F4809155
:100E30004F0261E00E94010B68EB7BE080E090E0F4
:100E40000E94470A80914F0260E00E94010B80E0FF
:100E500091E063E071E040ED57E00E948F06882347
:100E6000B1F30895CF92DF92EF92FF920F931F9309
:100E7000DF93CF93CDB7DEB72E970FB6F894DEBFD2
:100E80000FBECDBF6C017E010894E11CF11CC701AF
:100E900066E071E00E94D90E8E01085F1F4FC80105
:100EA00067E071E00E94F30EC801B6010E94A20E35
:100EB00068E371E00E94860EBC01C7010E946D0FBD
:100EC000C8010E94950FC70168EE72E040E450E04F
:100ED00020E030E00E94E40D81E491E063E071E005
:100EE0004BE351E028EE33E00E940406813009F024
:100EF00020C18DE491E06AE571E044EF51E00E9489
:100F00008F068823B1F38DB79EB70C970FB6F89470
:100F10009EBF0FBE8DBFEDB7FEB7319604E812E05D
:100F2000ADB7BEB712961C930E93119784E690E06E
:100F30009383828382E691E09583848385E592E0C2
:100F4000978386838EE592E0918780878FE592E094
:100F5000938782870E949C028DB79EB70C960FB62E
:100F6000F8949EBF0FBE8DBFC80163E071E04BE3F4
:100F700051E020E335E70E940406813009F0D9C032
:100F80008DE491E069E771E044EF51E00E948F0643
:100F90008823B1F38FE791E063E071E04BE351E028
:100FA00020E335E70E940406813009F0C2C08DE4D9
:100FB00091E068E871E044EF51E00E948F068823D9
:100FC000B1F380E991E069E971E04BE351E020E1A0
:100FD00037E20E940406813009F0ABC08DE491E055
:100FE0006BE971E044EF51E00E948F068823B1F372
:100FF000ADB7BEB71A970FB6F894BEBF0FBEADBF60
:10100000EDB7FEB7319604E812E012961C930E93EA
:10101000119784E690E09383828385EA91E095833B
:10102000848380E692E09783868380E792E09187CD
:1010300080870E949C028DB79EB70A960FB6F894DF
:101040009EBF0FBE8DBFC80161EC71E04CEC51E05A
:1010500020E335E70E940406813009F06AC088EE7B
:10106000E82E82E0F82EF70101900020E9F7319791
:10107000EE19FF0900D000D000D02DB73EB72F5F8A
:101080003F4FADB7BEB712961C930E93119789EDE3
:1010900091E0D90113969C938E9312971596FC9329
:1010A000EE9314970E94CD028DB79EB706960FB6A9
:1010B000F8949EBF0FBE8DBFC80167EE71E04BE391
:1010C00051E020E137E20E940406813011F000E097
:1010D00025C0C70169EE71E04BE351E020E137E242
:1010E0000E9404068AE293E06AE070E045E050E086
:1010F0002CED35E00E9473058AE293E061EF71E028
:101100000E9482029C01EAE2F3E0119293E0EA3647
:10111000F907D9F700E0232B09F001E086EF91E011
:1011200062E072E04BE351E020E137E20E94040606
:1011300001C000E0CE0101960E948F0F802F2E96F5
:101140000FB6F894DEBF0FBECDBFCF91DF911F91D8
:101150000F91FF90EF90DF90CF900895CF92DF92A4
:10116000EF92FF920F931F93DF93CF93CDB7DEB72C
:1011700027970FB6F894DEBF0FBECDBFD82EC92E6D
:101180007B0166E071E00E94D90E8E010F5F1F4F58
:10119000C801B70143E150E02FE130E00E94260F83
:1011A0008D2D9C2DB8010E946D0FC8010E948F0FDC
:1011B0008D2D9C2D27960FB6F894DEBF0FBECDBFA8
:1011C000CF91DF911F910F91FF90EF90DF90CF9023
:1011D0000895EF92FF920F931F93DF93CF93CDB7B4
:1011E000DEB76C970FB6F894DEBF0FBECDBFCE0151
:1011F000019666E071E00E94D90E8BEF93E00E94A9
:101200006C0C892B39F081E090E090932903809356
:10121000280306C064E670E080E090E00E94470A80
:101220008091280390912903892B09F481C08AE2D7
:1012300093E060E270E045E050E02CED35E00E9484
:1012400073058AE293E06BE072E00E9482020097ED
:1012500009F463C098E0E92EF12CEC0EFD1EC701E5
:101260006AE273E00E94D90E8E01015F1F4FC80130
:10127000B7010E94AE08CE010196B8010E946D0F21
:10128000C8010E948F0FC7010E948F0F68EE73E0A4
:1012900080E090E00E94470A80E192E063E071E024
:1012A00040ED57E00E948F06EAE2F3E0119283E0FE
:1012B000EA36F807D9F78E010A5E1F4FC801BE0152
:1012C0006F5F7F4F0E94840FC8010E943207F82E83
:1012D000C8010E948F0FFF2081F08091510261E0D0
:1012E0000E94010B64EC79E080E090E00E94470AE4
:1012F0008091510260E00E94010B84E192E063E082
:1013000071E04BE351E020E137E20E94040668EB14
:101310007BE080E090E00E94470AEAE2F3E011926D
:1013200083E0EA34F807D9F71092290310922803D2
:10133000CE0101960E948F0F6C960FB6F894DEBF17
:101340000FBECDBFCF91DF911F910F91FF90EF9016
:10135000089580914F0261E00E94DB0A8091510262
:1013600061E00E94DB0A8091530261E00E94DB0A87
:101370008091510260E00E94010B8091530260E075
:101380000E94010B8BEF93E040E855E260E070E0D3
:101390000E94E60B0E940D0768EB7BE080E090E086
:1013A0000E94470A8091530261E00E94010B8FE185
:1013B00092E068E272E043E352E028EE33E00E94FC
:1013C00004068823A1F38091530260E00E94010B80
:1013D0008EE392E063E071E040ED57E00E948F06FB
:1013E00008951F920F920FB60F9211242F933F93DF
:1013F0008F939F93AF93BF9380916E0390916F03F0
:10140000A0917003B0917103309172030196A11DF8
:10141000B11D232F2D5F2D3720F02D570196A11DD3
:10142000B11D2093720380936E0390936F03A0937A
:101430007003B093710380916A0390916B03A09144
:101440006C03B0916D030196A11DB11D80936A03D9
:1014500090936B03A0936C03B0936D03BF91AF9116
:101460009F918F913F912F910F900FBE0F901F90E2
:1014700018958FB7F89420916E0330916F034091C7
:101480007003509171038FBFB901CA0108959B0188
:10149000AC017FB7F89480916A0390916B03A0919F
:1014A0006C03B0916D0366B5A89B05C06F3F19F042
:1014B0000196A11DB11D7FBFBA2FA92F982F882794
:1014C000860F911DA11DB11D62E0880F991FAA1FF3
:1014D000BB1F6A95D1F7BC012DC0FFB7F89480916E
:1014E0006A0390916B03A0916C03B0916D03E6B514
:1014F000A89B05C0EF3F19F00196A11DB11DFFBFCC
:10150000BA2FA92F982F88278E0F911DA11DB11DCD
:10151000E2E0880F991FAA1FBB1FEA95D1F7861B2F
:10152000970B885E9340C8F22150304040405040B5
:1015300068517C4F211531054105510571F608951B
:10154000789484B5826084BD84B5816084BD85B59E
:10155000826085BD85B5816085BDEEE6F0E0808165
:1015600081608083E1E8F0E0108280818260808386
:10157000808181608083E0E8F0E080818160808309
:10158000E1EBF0E0808184608083E0EBF0E080813B
:1015900081608083EAE7F0E08081846080838081DD
:1015A0008260808380818160808380818068808385
:1015B0001092C1000895482F50E0CA0186569F4FEF
:1015C000FC0124914A575F4FFA0184918823C1F0AE
:1015D000E82FF0E0EE0FFF1FE859FF4FA591B491FF
:1015E000662341F49FB7F8948C91209582238C93C5
:1015F0009FBF08959FB7F8948C91822B8C939FBFC7
:101600000895482F50E0CA0182559F4FFC01249154
:10161000CA0186569F4FFC0194914A575F4FFA01C9
:101620003491332309F440C0222351F1233071F067
:10163000243028F42130A1F0223011F514C02630D6
:10164000B1F02730C1F02430D9F404C0809180007B
:101650008F7703C0809180008F7D8093800010C0C1
:1016600084B58F7702C084B58F7D84BD09C0809119
:10167000B0008F7703C08091B0008F7D8093B00061
:10168000E32FF0E0EE0FFF1FEE58FF4FA591B4914E
:101690002FB7F894662321F48C919095892302C08A
:1016A0008C91892B8C932FBF089508951F920F92D0
:1016B0000FB60F9211242F933F934F938F939F93C5
:1016C000EF93FF934091C6002091B3033091B40390
:1016D0002F5F3F4F2F7330708091B5039091B60309
:1016E0002817390759F0E091B303F091B403ED588E
:1016F000FC4F40833093B4032093B303FF91EF91E9
:101700009F918F914F913F912F910F900FBE0F900E
:101710001F901895E0910704F0910804E05CFF4FDA
:101720008191919120813181821B930B8F739070F5
:10173000892B11F00E94550B08951F920F920FB63E
:101740000F9211242F933F934F935F936F937F9347
:101750008F939F93AF93BF93EF93FF932091F703E2
:101760003091F8038091F9039091FA032817390713
:1017700031F48091C1008F7D8093C10016C0E0914B
:10178000F903F091FA03E954FC4F40818091F90389
:101790009091FA03019660E470E00E94BA0F909372
:1017A000FA038093F9034093C600FF91EF91BF9134
:1017B000AF919F918F917F916F915F914F913F91E9
:1017C0002F910F900FBE0F901F901895AF92BF9260
:1017D000DF92EF92FF920F931F93CF93DF93EC0171
:1017E0007A018B01DD24403081EE580780E06807E4
:1017F00080E0780711F0DD24D39491E0A92EB12C7C
:10180000EC89FD89DD2069F0C5010E8C02C0880FCE
:10181000991F0A94E2F7808360E079E08DE390E01D
:1018200005C0108260E874E88EE190E0A80197019D
:101830000E94CD0F21503040404050405695479572
:101840003795279580E12030380720F0DD2011F012
:10185000DD24D6CFE889F9893083EA89FB892083A2
:10186000EE89FF89408121E030E0C9010A8C02C085
:10187000880F991F0A94E2F7482B4083EE89FF896D
:101880004081C9010B8C02C0880F991F0A94E2F7AE
:10189000482B4083EE89FF894081C9010C8C02C02E
:1018A000880F991F0A94E2F7482B4083EE89FF893D
:1018B00080810D8C02C0220F331F0A94E2F720951D
:1018C00028232083DF91CF911F910F91FF90EF90FC
:1018D000DF90BF90AF900895DC011C96ED91FC91D4
:1018E0001D97E05CFF4F2191319180819181281BF0
:1018F000390B2F733070C9010895DC011C96ED91EE
:10190000FC911D97E05CFF4F20813181E054F04055
:10191000DF01AE5BBF4F8D919C911197281739075E
:1019200019F42FEF3FEF07C08D919C91E80FF91F3D
:101930008081282F30E0C9010895DC011C96ED91CB
:10194000FC911D97E05CFF4F20813181E054F04015
:10195000DF01AE5BBF4F8D919C911197281739071E
:1019600019F42FEF3FEF10C08D919C911197E80F64
:10197000F91F20818D919C91119701968F73907022
:1019800011969C938E9330E0C9010895FC018685E1
:101990009785DC01A05CBF4FFC01EE5BFF4F2D91F2
:1019A0003C9111978081918128173907C1F70895DB
:1019B000CF93DF93EC01462FEE85FF85E05CFF4F70
:1019C00080819181E054F040019660E470E00E94D3
:1019D000BA0F9C01DF01AE5BBF4F8D919C911197B7
:1019E00028173907D1F3E05CFF4F80819181E054E3
:1019F000F040E80FF91F4083EE85FF85E05CFF4F64
:101A000031832083EE89FF89208181E090E00D8C75
:101A100002C0880F991F0A94E2F7282B208381E0E7
:101A200090E0DF91CF9108951092FE031092FD0394
:101A300088EE93E0A0E0B0E08093FF039093000471
:101A4000A0930104B093020487E792E09093FC0313
:101A50008093FB0383E793E090930804809307044B
:101A600087EB93E090930A048093090485EC90E05F
:101A700090930C0480930B0484EC90E090930E04FC
:101A800080930D0480EC90E09093100480930F04F9
:101A900081EC90E0909312048093110486EC90E026
:101AA000909314048093130484E08093150483E0DE
:101AB0008093160487E08093170485E080931804D0
:101AC00081E0809319040895CF93DF930E94A00AC8
:101AD0000E94A909CAE8DBE00E94E9082097E1F327
:101AE0000E948A0BF9CFCF92DF92EF92FF920F9371
:101AF0001F93CF93DF937C016B018A01C0E0D0E09C
:101B00000FC0D6016D916D01D701ED91FC9101904F
:101B1000F081E02DC7010995C80FD91F0150104071
:101B20000115110571F7CE01DF91CF911F910F9132
:101B3000FF90EF90DF90CF900895EF92FF920F9378
:101B40001F938C01DC01ED91FC910190F081E02D5F
:101B50006DE009957C01D801ED91FC910190F08137
:101B6000E02DC8016AE009959C012E0D3F1DC901B9
:101B70001F910F91FF90EF900895CF93DF93DB01BA
:101B80000D900020E9F71197A61BB70BEC01E88137
:101B9000F9810280F381E02DAD010995DF91CF91AC
:101BA0000895EF92FF920F931F937C010E94BD0D49
:101BB0008C01C7010E949D0D080F191FC8011F91BC
:101BC0000F91FF90EF9008950F931F93CF93DF93A2
:101BD000FC018B0141155105F9F061157105E1F02A
:101BE000848195812817390718F0FB01108214C0F1
:101BF00041505040EC01C21BD30B4C175D0708F459
:101C0000EA0160817181620F731FC801AE010E94F9
:101C10007302C00FD11F1882DF91CF911F910F91D6
:101C200008950F931F93CF93DF93EC018B016F5FA8
:101C30007F4F888199810E948E01009711F480E086
:101C400005C0998388831B830A8381E0DF91CF914C
:101C50001F910F910895CF93DF93EC0188819981B3
:101C6000892B29F08A819B818617970760F4CE0122
:101C70000E94110E882341F08C819D81892B19F4DB
:101C8000E881F981108281E0DF91CF910895EF9290
:101C9000FF920F931F93CF93DF93EC017B016C8135
:101CA0007D81E114F104C1F04115510599F08A01DB
:101CB000060F171FB8010E942B0E882369F0888138
:101CC00099812C813D81820F931FB7010E946C0284
:101CD0001D830C8381E001C080E0DF91CF911F91D3
:101CE0000F91FF90EF900895CF93DF93EC018881DF
:101CF0009981009711F00E943601198218821D8285
:101D00001C821B821A82DF91CF9108950F931F933B
:101D1000182F092F6115710561F0DB010D9000206E
:101D2000E9F71197A61BB70BAD010E94470E882358
:101D300021F4812F902F0E94740E812F902F1F91DC
:101D40000F9108950F931F93182F092FFB016081A6
:101D50007181448155810E94470E882321F4812F8F
:101D6000902F0E94740E812F902F1F910F91089534
:101D7000EF92FF920F931F93CF93DF93EC017B01C0
:101D80008A01BA010E942B0E882321F4CE010E9401
:101D9000740E07C01D830C8388819981B7010E944E
:101DA0006C02CE01DF91CF911F910F91FF90EF90C8
:101DB0000895CF93DF93EC01198218821B821A8257
:101DC0001D821C821E826115710551F0DB010D9090
:101DD0000020E9F71197A61BB70BAD010E94B80EC2
:101DE000DF91CF910895CF93DF93EC011982188290
:101DF0001B821A821D821C821E826115710551F0A0
:101E0000DB010D900020E9F71197A61BB70BAD0180
:101E10000E94B80EDF91CF9108950F931F93182F52
:101E2000092F6115710559F0DB010D900020E9F7CC
:101E30001197A61BB70BAD010E94B80E02C00E94FD
:101E4000740E812F902F1F910F910895BF92CF9202
:101E5000DF92EF92FF920F931F93CF93DF93082FA0
:101E6000B92E6B017A01E9012417350710F4EA0154
:101E70007901802F9B2D68E472E00E94D90ED60173
:101E800014968D919C9115978E159F05D0F08C1707
:101E90009D0708F4EC01D601ED91FC911197EC0F30
:101EA000FD1F108110826D917C916E0D7F1D802F22
:101EB0009B2D0E940D0FD601ED91FC91EC0FFD1FA3
:101EC0001083802F9B2DDF91CF911F910F91FF9059
:101ED000EF90DF90CF90BF900895CF93DF93EC0108
:101EE000FB018617970761F06081718161157105AB
:101EF00029F0448155810E94B80E02C00E94740EE0
:101F0000CE01DF91CF910895FC01118210821382DE
:101F100012821582148216820E946D0F0895FC01B0
:101F2000808191810E9436010895FC018081918118
:101F30000E9436010895629FD001739FF001829F35
:101F4000E00DF11D649FE00DF11D929FF00D839F48
:101F5000F00D749FF00D659FF00D9927729FB00DE5
:101F6000E11DF91F639FB00DE11DF91FBD01CF01F8
:101F70001124089597FB092E07260AD077FD04D077
:101F80002ED006D000201AF4709561957F4F0895E9
:101F9000F6F7909581959F4F0895A1E21A2EAA1BFE
:101FA000BB1BFD010DC0AA1FBB1FEE1FFF1FA21709
:101FB000B307E407F50720F0A21BB30BE40BF50B06
:101FC000661F771F881F991F1A9469F7609570958F
:101FD000809590959B01AC01BD01CF010895AA1B8E
:101FE000BB1B51E107C0AA1FBB1FA617B70710F004
:101FF000A61BB70B881F991F5A95A9F78095909536
:10200000BC01CD010895EE0FFF1F0590F491E02D66
:1020100009942F923F924F925F926F927F928F928C
:102020009F92AF92BF92CF92DF92EF92FF920F9367
:102030001F93CF93DF93CDB7DEB7CA1BDB0B0FB671
:10204000F894DEBF0FBECDBF09942A88398848882E
:102050005F846E847D848C849B84AA84B984C884C4
:10206000DF80EE80FD800C811B81AA81B981CE0FBB
:10207000D11D0FB6F894DEBF0FBECDBFED010895A0
:04208000F894FFCF02
:102084004154004F4B000047455420687474703A23
:102094002F2F6D326D2E6D616B657273746F72616B
:1020A40067652E636F6D2F696E6465782E70687036
:1020B4003F70686F6E653D000D0A004552524F52E5
:1020C4000041542B4349504D55583D300041542B49
:1020D40043495053544154555300494E495449417E
:1020E4004C0041542B435354543D222573222C223B
:1020F4002573222C2225732200535441525400414B
:10210400542B4349494352004750525341435400CE
:1021140041542B4349465352002E004950205354F6
:10212400415455530041542B434950535441525444
:102134003D22544350222C222573222C2225732223
:1021440000434F4E4E454354204F4B00434F4E4E99
:10215400454354204641494C0041542B4349505374
:10216400454E443D2564003E0053454E44204F4BAC
:1021740000747275650041542B434950434C4F53CE
:102184004500434C4F5345204F4B0052494E4700A6
:102194004154480041542B4349505348555400413D
:1021A400542B435245473F002B435245473A203076
:1021B4002C31002B435245473A20302C35004154F2
:1021C4002B434C49503D31000020001E0400000404
:1021D4000007000D00696E7465726E65740000007E
:1021E4003139322E3234312E3232362E31363800F5
:1021F40038300000000000D80C730D6C0C9D0C7D71
:042204000CC60C00F8
:00000001FF
